:020000040000FA
:100000000C9463000C948B000C948B000C948B006C
:100010000C948B000C948B000C948B000C94600857
:100020000C948B000C948B000C948B000C945E0948
:100030000C948B000C948B000C948B000C948B0014
:100040000C9414090C948B000C94E2080C94BC08DA
:100050000C948B000C948B000C948B000C948B00F4
:100060000C941A0A0C948B00000000002400270056
:100070002A0000000008000201000003040700003D
:1000800000000000000000000000230026002900FE
:10009000010204081020408001020408102001021F
:1000A0000408102000000000250028002B00040494
:1000B0000404040404040202020202020303030310
:1000C000030302007A0B11241FBECFEFD8E0DEBF7E
:1000D000CDBF12E0A0E0B1E0EEEDF6E202C0059087
:1000E0000D92A23BB107D9F724E0A2EBB2E001C028
:1000F0001D92A73BB207E1F710E0C3E6D0E004C0D1
:100100002197FE010E946713C236D107C9F70E94EA
:10011000490C0C946D130C9400008F929F92AF9237
:10012000BF92FF920F931F93CF93DF93F090390408
:100130002BE02F1508F44CC020913B0408E512E099
:10014000021B110927FD1395000F111F000F111F2E
:1001500020913A04C8E8D0E0C21BD10927FDD3950D
:10016000CC0FDD1FCC0FDD1F4E010D2E000CAA0899
:10017000BB089801012E000C440B550B28193909B6
:100180004A095B09DC010E94DF1024EB30E040E00B
:1001900050E00E94B510820E931EA41EB51E8C1650
:1001A0009D062CF0E801801691060CF4E4012297DC
:1001B000CC0FDD1F2FB7F8948F2D90E0FC01EE0FD0
:1001C000FF1FE80FF91FEC5EFB4FD283C1832FBFE7
:1001D000DF91CF911F910F91FF90BF90AF909F90B3
:1001E0008F90089596E0899FD0011124A45CBB4FA5
:1001F00090967C936E935F9791E091969C939197E4
:10020000E091A904F091AA049091A804992339F0EF
:10021000309751F0811108C08091580409943097AB
:1002200019F05C968C91FACF0895AF92BF92CF925D
:10023000DF92EF92FF920F931F93CF93DF936C01A6
:100240007B018B01040F151FEB015E01AE18BF0887
:10025000C017D10759F06991D601ED91FC91019039
:10026000F081E02DC6010995892B79F7C501DF9151
:10027000CF911F910F91FF90EF90DF90CF90BF90A3
:10028000AF900895FC01538D448D252F30E0842FCD
:1002900090E0821B930B541710F0CF9608950197AE
:1002A0000895FC01918D828D981761F0A28DAE0F9B
:1002B000BF2FB11D5D968C91928D9F5F9F73928F22
:1002C00090E008958FEF9FEF0895FC01918D828D4E
:1002D000981731F0828DE80FF11D858D90E008951B
:1002E0008FEF9FEF0895FC01918D228D892F90E073
:1002F000805C9F4F821B91098F73992708958BE62D
:1003000093E00E94730121E0892B09F420E0822F01
:10031000089580E090E0892B29F00E947F018111EF
:100320000C9400000895FC01A48DA80FB92FB11DF5
:10033000A35ABF4F2C91848D90E001968F7399271B
:10034000848FA689B7892C93A089B1898C918370F9
:1003500080648C93938D848D981306C00288F389F2
:10036000E02D80818F7D80830895EF92FF920F931F
:100370001F93CF93DF93EC0181E0888F9B8D8C8D51
:1003800098131AC0E889F989808185FF15C09FB745
:10039000F894EE89FF896083E889F9898081837008
:1003A000806480839FBF81E090E0DF91CF911F91B7
:1003B0000F91FF90EF900895F62E0B8D10E00F5FD8
:1003C0001F4F0F731127E02E8C8D8E110CC00FB6AE
:1003D00007FCFACFE889F989808185FFF5CFCE0146
:1003E0000E949301F1CFEB8DEC0FFD2FF11DE35A2D
:1003F000FF4FF0829FB7F8940B8FEA89FB898081C9
:100400008062CFCFCF93DF93EC01888D8823B9F042
:10041000AA89BB89E889F9898C9185FD03C080810F
:1004200086FD0DC00FB607FCF7CF8C9185FFF2CF8C
:10043000808185FFEDCFCE010E949301E9CFDF914E
:10044000CF910895833081F028F4813099F0823083
:10045000A9F008958730A9F08830C9F08430B1F44C
:10046000809180008F7D03C0809180008F77809382
:100470008000089584B58F7784BD089584B58F7DFD
:10048000FBCF8091B0008F778093B000089580916A
:10049000B0008F7DF9CFCF93DF93282F30E0F901A3
:1004A000EE58FF4F8491F901E057FF4FD491F901C5
:1004B000E255FF4FC491CC23A1F081110E9422028A
:1004C000EC2FF0E0EE0FFF1FEA57FF4FA591B4911C
:1004D000EC91ED2381E090E009F480E0DF91CF9191
:1004E000089580E090E0FACF862F0C944B021F9382
:1004F000CF93DF93282F30E0F901EE58FF4F84911E
:10050000F901E057FF4FD491F901E255FF4FC49133
:10051000CC23A9F0162F81110E942202EC2FF0E0CB
:10052000EE0FFF1FEC55FF4FA591B4918FB7F894D4
:10053000EC91111108C0D095DE23DC938FBFDF91C1
:10054000CF911F910895DE2BF8CF862F642F0C9446
:1005500077029091000189130BC0E2ECF0E0E49186
:100560009FEF90930001E13049F028F0E23061F014
:1005700060E00C94770210926E00FACF90916F00B9
:100580009D7F90936F00F4CF909170009D7F90932A
:10059000700091E09093B0009091B100987F9460CA
:1005A0009093B1001092B300E3CFCF93DF9390E02C
:1005B000FC01E057FF4F249182559F4FFC0184912D
:1005C0008823C9F090E0880F991FFC01E859FF4F7C
:1005D000A591B491FC01EC55FF4FC591D4916111E7
:1005E0000DC09FB7F8948C91209582238C938881BD
:1005F000282328839FBFDF91CF910895623051F463
:100600009FB7F8943C91822F809583238C93E88147
:100610002E2BEFCF8FB7F894EC912E2B2C938FBF0E
:10062000EACFCF93809100018D3021F08F3F59F1B7
:10063000CF910895E2ECF0E0C491C7FDF9CF61E0FD
:100640008DE00E94D502CC2309F48BC0C23009F0A2
:100650009FC08091B100887F86608093B1008BE954
:100660008093B3008FEF9FEFDC0180935F03909343
:100670006003A0936103B093620380917000826075
:1006800080937000D5CF8DE080930001E2ECF0E024
:10069000C491CF3F69F2C13021F150F0C23009F46A
:1006A0003EC0C7FDC5CF61E08DE00E94D502CECF30
:1006B00014BC15BC84B5826084BD85B5816085BDE0
:1006C000EBEBF0E0E491F0E0EE0FFF1FEC55FF4F95
:1006D00085919491EDE9F0E0E491E0935E03C0E050
:1006E000AECF1092800010928100809181008860CE
:1006F0008093810080918100816080938100EBEB89
:10070000F0E0E491F0E0EE0FFF1FEC55FF4F859114
:100710009491EDE9F0E0E491E0935D0390CF1092C5
:10072000B0001092B1008091B00082608093B00060
:100730008091B10081608093B100EBEBF0E0E49137
:10074000F0E0EE0FFF1FEC55FF4F859194919093D1
:100750005C0380935B03EDE9F0E0E491E0935A03DE
:100760006ECF85B5887F846085BD8BE987BD8FEFAF
:100770009FEFDC018093670390936803A093690364
:10078000B0936A0380916E00826080936E0050CFB8
:10079000C130E9F480918100887F8160809381007D
:1007A0008FE39CE990938900809388008FEF9FEFFF
:1007B000DC018093630390936403A0936503B0937B
:1007C000660380916F00826080936F0031CFC230EA
:1007D00021F0C1112DCF8FE3C9CF8FE341CF862FF9
:1007E000642F0C94D5028E3008F08E508770806490
:1007F00080937C0080917A00806480937A0080915D
:100800007A0086FDFCCF8091780090917900089560
:100810003FB7F89480914D0390914E03A0914F0300
:10082000B091500326B5A89B05C02F3F19F0019643
:10083000A11DB11D3FBFBA2FA92F982F8827BC013A
:10084000CD01620F711D811D911D42E0660F771F62
:10085000881F991F4A95D1F708958F929F92AF9262
:10086000BF92CF92DF92EF92FF924B015C010E9408
:1008700008046B017C010E9408046C197D098E0933
:100880009F09683E734081059105A8F321E0821A13
:100890009108A108B10888EEC80E83E0D81EE11CBB
:1008A000F11C81149104A104B10429F7FF90EF9089
:1008B000DF90CF90BF90AF909F908F9008952FB70B
:1008C000F8946091490370914A0380914B03909191
:1008D0004C032FBF08950F931F93CF93DF93C82F1F
:1008E000D62F86E0C89FF0011124E45CFB4F11A2D3
:1008F000878D90A181309105F1F058F082309105FB
:10090000F1F1039709F440C0DF91CF911F910F914E
:1009100008956623C9F361E070E08C2F0E94F20015
:100920000E945F04609394047093950480939604EE
:1009300090939704E9CF0E945F0400919404109172
:1009400095042091960430919704AB01BC01401BA3
:10095000510B620B730B8091A6049091A704B0E039
:10096000A0E084179507A607B70748F462E070E097
:100970008C2FDF91CF911F910F910C94F20063E0C7
:1009800070E0D111C1CFF4CF70E060E0F1CF0895F5
:100990001F93CF93DF93C1E0C093B302882399F1F3
:1009A000D091B8001091BA008091BC008A7B8093EE
:1009B000BC0060E082E10E94770260E083E10E9477
:1009C000770210921D03C0931C031092F70261E09E
:1009D00082E10E94770261E083E10E9477028091C8
:1009E000B9008E7F8093B9008091B9008D7F80938C
:1009F000B90088E48093B80085E48093BC0010932C
:100A0000BA00D093B800DF91CF911F910895209143
:100A1000D402260F3327331F21323105ECF4209105
:100A20001D03FC0190E080E0243069F082E008952D
:100A3000A091D4022191AC014C545D4FA40FB52F6D
:100A4000B11D2C930196861798F38091D402680FFC
:100A50006093D40280E0089581E0089508958FEFB7
:100A60009FEF08958FEF9FEF08958091B20290E07D
:100A70009195819591090895CF92DF92EF92FF921F
:100A80000F931F93CF93DF937C01CB018A012091B9
:100A90002303222389F0EB016B01C40ED51ECC1574
:100AA000DD0569F06991D701ED91FC910190F0812C
:100AB000E02DC7010995F3CF642F0E940705C801F7
:100AC000DF91CF911F910F91FF90EF90DF90CF902A
:100AD0000895CF93DF931F92CDB7DEB7698320913E
:100AE00023032223F9F020914603203258F021E01D
:100AF00030E0FC013383228390E080E00F90DF91AF
:100B0000CF91089580912403E82FF0E0EB5DFC4F36
:100B1000998190838F5F809324038093460381E0C3
:100B200090E0ECCF61E0CE0101960E940705F7CF7F
:100B3000CF92DF92EF92FF920F931F93CF93DF93A9
:100B4000FC01C48121E020932303C093450310924C
:100B50002403109246038385682B88E094E00E946A
:100B60006905D0914603D13208F092C00E94080472
:100B70006B017C0180911D03811165C082E080932F
:100B80001D0381E080931C038FEF80931B03109261
:100B90001A03D0931903A5E2B3E0E9EFF2E080E095
:100BA000D81385C01092F8028091F802CC0FC82BA0
:100BB000C093F8028091F702813009F07CC0109256
:100BC000F7020E9408046B017C018091F802809377
:100BD000BB0080911F0390912003A0912103B0914D
:100BE0002203892B8A2B8B2B99F00E9408040091F9
:100BF0001F031091200320912103309122036C19CF
:100C00007D098E099F090617170728073907E0F1A4
:100C10008091BC0083FDD9CF85EC8093BC000E94FD
:100C200008046B017C0180911D03823009F445C0EA
:100C300080911B038F3F61F180911B03803241F152
:100C400080911B0325C080911F0390912003A091E8
:100C50002103B0912203892B8A2B8B2B09F48ACF95
:100C60000E94080400911F0310912003209121038A
:100C7000309122036C197D098E099F090617170709
:100C80002807390708F076CF80911E030E94C80418
:100C9000109224031092460310922303DF91CF9108
:100CA0001F910F91FF90EF90DF90CF9008959D914D
:100CB00091938F5F75CF85EEB0CF80911F03909198
:100CC0002003A0912103B0912203892B8A2B8B2B27
:100CD00009F4A9CF0E94080400911F03109120037A
:100CE00020912103309122036C197D098E099F09FF
:100CF000061717072807390708F095CFC5CF90E0EA
:100D000080E008950F931F93CF938C01C62F0E940C
:100D100098056C2F6460C8010E9498056C2F6B7F4A
:100D2000C8010E94980583EC90E00197F1F7CF91FC
:100D30001F910F9108950F931F93CF93DF938C0111
:100D4000D62FC42F607F642B0E94820680E1D89F3B
:100D5000B00111246C2BC801DF91CF911F910F912D
:100D60000C94820640E061E08BEA94E00E949B06CE
:100D70008BE39FE10197F1F70895CF93DF93CDB710
:100D8000DEB728970FB6F894DEBF0FBECDBF98E050
:100D9000E4E1F1E0DE01119601900D929A95E1F700
:100DA0009091B304981710F48FEF890F90E0880F9B
:100DB000991F21E030E02C0F3D1F820F931FFC0193
:100DC0006081606840E08BEA94E028960FB6F89462
:100DD000DEBF0FBECDBFDF91CF910C949B0641E0EB
:100DE0000E949B0681E090E00895FB0101900020A5
:100DF000E9F73197AF01461B570BDC01ED91FC91F0
:100E00000280F381E02D09948F929F92AF92BF925E
:100E10000F931F93CF93DF93CDB7DEB7A1970FB694
:100E2000F894DEBF0FBECDBF19A2423008F44AE0ED
:100E30008E010F5D1F4F842E912CB12CA12CA5018A
:100E400094010E94E710E62FB901CA01EA3004F5C7
:100E5000E05DD801EE938D01232B242B252B79F710
:100E600090E080E0109729F0BD018BE693E00E94AE
:100E7000F506A1960FB6F894DEBF0FBECDBFDF9189
:100E8000CF911F910F91BF90AF909F908F90089539
:100E9000E95CDFCF4F925F926F927F928F929F9229
:100EA000AF92BF92CF92DF92EF92FF920F931F9378
:100EB000CF936B017C01742EAC019B010E944F13F8
:100EC00066E571E0811126C046015701E894B7F844
:100ED0002FEF3FEF4FE75FE7C501B4010E944F13CB
:100EE00081110CC02FEF3FEF4FE75FE7C501B40161
:100EF0000E9485116AE571E0181664F02FEF3FEF4C
:100F00004FE75FE4C701B6010E94DD121816ACF48A
:100F10006EE571E08BE693E0CF911F910F91FF900A
:100F2000EF90DF90CF90BF90AF909F908F907F9089
:100F30006F905F904F900C94F5062FEF3FEF4FE7C7
:100F40005FECC701B6010E94851187FDE1CF20E06B
:100F500030E0A901C701B6010E94851110E000E050
:100F600087FF0AC06DE28BE693E00E94B5018C0119
:100F7000F7FAF094F7F8F094C0E060E070E080E0F9
:100F80009FE37C1641F020E030E040E251E40E9413
:100F90008A11CF5FF6CFA70196010E9419112B018C
:100FA0003C010E94FC114B015C014AE00E940407D5
:100FB0007C01E00EF11ECC23C1F1C501B4010E94F9
:100FC0002B129B01AC01C301B2010E9418114B010D
:100FD0005C016EE28BE693E00E94B501E80EF91E1B
:100FE000C15018F120E030E040E251E4C501B40105
:100FF0000E94E2122B013C010E94FC114B01B12C1A
:10100000A12C4AE0C501B4010E940407E80EF91EB4
:10101000C501B4010E942B129B01AC01C301B201B6
:101020000E9418114B015C01DBCFC701CF911F91CA
:101030000F91FF90EF90DF90CF90BF90AF909F9077
:101040008F907F906F905F904F9008950C94F5066D
:1010500085ED8093BC0080911F0390912003A091A7
:101060002103B09122030796A11DB11D23E0B6957F
:10107000A795979587952A95D1F72091BC0024FDD7
:1010800003C010921D03089540911F035091200347
:101090006091210370912203452B462B472B69F366
:1010A0000097A105B10541F025E32A95F1F700006D
:1010B0000197A109B109E1CF80911E030C94C804E6
:1010C0001F920F920FB60F9211242F933F934F93BD
:1010D0005F936F937F938F939F93AF93BF93EF93A0
:1010E000FF9380915F0390916003A0916103B091A1
:1010F0006203892B8A2B8B2BD1F190915A03E091BB
:101100005B03F0915C0380818927808380915F037A
:1011100090916003A0916103B091620318161906C3
:101120001A061B069CF480915F0390916003A091C6
:101130006103B09162030197A109B10980935F0334
:1011400090936003A0936103B0936203FF91EF91CA
:10115000BF91AF919F918F917F916F915F914F91CF
:101160003F912F910F900FBE0F901F901895809177
:1011700000010E94A902EACF1F920F920FB60F92B0
:1011800011242F933F934F935F936F937F938F938C
:101190009F93AF93BF93EF93FF938BE693E00E94EF
:1011A0009301FF91EF91BF91AF919F918F917F91AB
:1011B0006F915F914F913F912F910F900FBE0F90C4
:1011C0001F9018951F920F920FB60F9211242F9314
:1011D0008F939F93EF93FF93E0917B03F0917C03B8
:1011E0008081E0918103F091820382FD1BC0908198
:1011F000809184038F5F8F7320918503821741F064
:10120000E0918403F0E0E559FC4F958F80938403CF
:10121000FF91EF919F918F912F910F900FBE0F90A3
:101220001F9018958081F4CF1F920F920FB60F92E6
:1012300011242F933F938F939F93AF93BF938091EC
:10124000490390914A03A0914B03B0914C03309114
:10125000480323E0230F2D3758F50196A11DB11D3A
:10126000209348038093490390934A03A0934B0330
:10127000B0934C0380914D0390914E03A0914F0386
:10128000B09150030196A11DB11D80934D03909321
:101290004E03A0934F03B0935003BF91AF919F9122
:1012A0008F913F912F910F900FBE0F901F90189527
:1012B00026E8230F0296A11DB11DD2CF1F920F92D7
:1012C0000FB60F9211242F933F934F935F936F9319
:1012D0007F938F939F93AF93BF93CF93DF93EF93BE
:1012E000FF9380914703C0913804D0E087FF24C06A
:1012F0001092850010928400809147038F5F809345
:10130000470380914703082E000C990B8C179D070B
:1013100024F4809147038C30C4F180918400909133
:101320008500049680349C4908F47AC0809184003A
:1013300090918500049676C080914703082E000C9A
:10134000990B8C179D07C4F6E09147038E2FEE0F83
:10135000990BFC01EE0FFF1FE80FF91FEC5EFB4F2E
:10136000808186FFC9CFE09147038E2FEE0F990B46
:10137000FC01EE0FFF1FE80FF91FEC5EFB4F8081B1
:1013800060E08F730E947702B7CF20918400309184
:101390008500E09147038E2FEE0F990BFC01EE0FB5
:1013A000FF1FE80FF91FEC5EFB4F81819281820FD6
:1013B000931F9093890080938800E09147038E2FBC
:1013C000EE0F990BFC01EE0FFF1FE80FF91FEC5E0B
:1013D000FB4F808186FF11C0E09147038E2FEE0FF7
:1013E000990BFC01EE0FFF1FE80FF91FEC5EFB4F9E
:1013F000808161E08F730E947702FF91EF91DF910E
:10140000CF91BF91AF919F918F917F916F915F919C
:101410004F913F912F910F900FBE0F901F901895F5
:1014200080E49CE990938900809388008FEF8093FB
:101430004703E3CF1F920F920FB60F9211242F9301
:101440003F934F935F936F937F938F939F93AF934C
:10145000BF93EF93FF938091B900887F803609F4A2
:101460004AC0F0F5883209F4A5C018F5803109F4B6
:1014700099C0B8F4882309F4F5C0883009F492C003
:10148000FF91EF91BF91AF919F918F917F916F915C
:101490005F914F913F912F910F900FBE0F901F9032
:1014A0001895883109F486C0803251F780931B0368
:1014B00014C0803409F49BC040F48033B9F38833FE
:1014C000F9F680931B0385ECAEC0803509F483C028
:1014D000883509F494C0883499F60E942808D0CF42
:1014E000883909F48AC038F5883729F050F48836ED
:1014F00011F0803729F683E080931D031092F602E5
:1015000055C0883809F479C0803919F0803809F05D
:10151000B7CF8091F602803208F06FC0E091F602FA
:1015200081E08E0F8093F6028091BB00F0E0EA52DA
:10153000FD4F80833BC0803B39F0D0F4803A09F402
:1015400077C0883A09F09CCF84E080931D03109205
:10155000D5021092D402F0E0E0E009958091D40227
:1015600081110FC081E08093D4021092B40209C0AF
:10157000803C09F4A8CF883C09F4A5CF883B09F04A
:101580007FCFE091D50281E08E0F8093D502F0E00D
:10159000EC54FD4F80818093BB009091D5028091E7
:1015A000D40229C08091F8028093BB0085EC80931F
:1015B000BC0066CF90911A0380911903981758F5D3
:1015C000E0911A0381E08E0F80931A03F0E0E75058
:1015D000FD4F8081E9CFE0911A0381E08E0F809367
:1015E0001A038091BB00F0E0E750FD4F808390919B
:1015F0001A03809119039817C8F285E8D8CFE091B3
:101600001A0381E08E0F80931A038091BB00F0E0F3
:10161000E750FD4F808380911C0381115ECF81E0F4
:101620008093F70284EA8093BC0010921D0328CFB8
:1016300085EC8093BC0010921D038091F6028032ED
:1016400030F4E091F602F0E0EA52FD4F1082609132
:10165000F60270E086ED92E0F0E0E0E0099510928D
:10166000F6020ECF10921B0338CFCF92DF92EF928B
:10167000FF920F931F93E82FF92F05C00150110916
:101680002109310961F1908196239417B9F305C0BE
:10169000015011092109310911F190819623941308
:1016A000F7CFC12CD12CE12CF12C0AC08FEFC81A36
:1016B000D80AE80AF80A0C151D052E053F0579F031
:1016C00080818623841791F36C2D7D2D8E2D9F2D87
:1016D0001F910F91FF90EF90DF90CF90089560E001
:1016E00070E080E090E01F910F91FF90EF90DF900D
:1016F000CF90089510926E0310926D0388EE93E0E0
:10170000A0E0B0E080936F0390937003A093710307
:10171000B093720320E231E030936C0320936B03AB
:1017200025EC30E0309378032093770324EC30E00D
:1017300030937A032093790320EC30E030937C03DC
:1017400020937B0321EC30E030937E0320937D03D4
:1017500022EC30E03093800320937F0326EC30E0CE
:1017600030938203209381031092840310928503A7
:10177000109286031092870310920B0410920A04B1
:1017800080930C0490930D04A0930E04B0930F0467
:1017900082E391E090930904809308041092AE04D0
:1017A0001092AD048EE491E09093AC048093AB046E
:1017B00087E28093AF0484E18093B40484E0809353
:1017C000B5041092B60410923E0410924204109296
:1017D00041041092430484E491E090933D0480938B
:1017E0003C04E8E5F4E010821482138215823696F8
:1017F00084E0E439F807B9F784E091E090939F041E
:1018000080939E0481E091E09093A1048093A004D2
:1018100084E08093A20483E08093A30488E091E0B5
:1018200090939D0480939C048AE090E09093A5049B
:101830008093A40484EF91E09093A7048093A6047E
:101840001092AA041092A90410929804109299047C
:1018500010929A0410929B041092A804809138046C
:101860008C3098F491E0980F909338048093390469
:1018700090E0FC01EE0FFF1FE80FF91FEC5EFB4F3D
:1018800088EB9BE09283818308958FEF80933904E6
:101890000895789484B5826084BD84B5816084BDE8
:1018A00085B5826085BD85B5816085BD80916E00FE
:1018B000816080936E00109281008091810082602F
:1018C000809381008091810081608093810080916C
:1018D00080008160809380008091B100846080935B
:1018E000B1008091B00081608093B00080917A0057
:1018F000846080937A0080917A00826080937A007D
:1019000080917A00816080937A0080917A0080686B
:1019100080937A001092C1008091B0048860809317
:10192000B00414E01093B30462E370E080E090E050
:101930000E942D046091B6048BEA94E00E94980501
:1019400068EE73E080E090E00E942D0460E38BEA93
:1019500094E00E948206CBE4D6E4CE010197F1F731
:1019600060E38BEA94E00E9482062197F1F760E33E
:101970008BEA94E00E94820683E592E00197F1F7FA
:1019800060E28BEA94E00E9482066091B00460629B
:1019900040E08BEA94E00E949B061093B10440E083
:1019A0006CE08BEA94E00E949B060E94B20682E003
:1019B0008093B20440E066E08BEA94E00E949B06CC
:1019C00040E062E08BEA94E00E949B068BE39FE19B
:1019D0000197F1F761E089E00E94D50261E08AE0B9
:1019E0000E94D50260E081E10E94D50261E08FE0B3
:1019F0000E94D50260E080E10E94D50262E671E0BB
:101A00008BEA94E00E94260881E00E94BD0663E70D
:101A100071E08BEA94E00E9426086CEB72E080E0B3
:101A200090E00E942D04809139048C3008F051C060
:101A300061E08CE00E94D50280913904282F30E0CB
:101A4000F901EE0FFF1FE20FF31FEC5EFB4F9081D9
:101A5000907C9C60908310923A0410923B042CE09E
:101A6000622F0E945413829FB001112430E020E0C5
:101A7000AB01420F531FFA01EE0FFF1FE40FF51FDA
:101A8000EC5EFB4F908196FD16C02F5F3F4F2C30D0
:101A9000310571F781110FC01092800082E08093B0
:101AA00081001092850010928400B19A80916F009D
:101AB000826080936F00E09139048E2F90E0FC01EA
:101AC000EE0FFF1FE80FF91FEC5EFB4F8081806473
:101AD000808390E080E00E948D00E0917B03F09194
:101AE0007C0382E08083E0917703F0917803108299
:101AF000E0917903F0917A038FEC80831092830355
:101B0000E0917F03F091800386E08083E0917D0384
:101B1000F0917E03808180618083E0917D03F0916C
:101B20007E03808188608083E0917D03F0917E0355
:101B3000808180688083E0917D03F0917E038081C5
:101B40008F7D808322242A94322C88248A9443E037
:101B5000942EA12CB12C8EE00E94F303BC01990FAE
:101B6000880B990B0E942D1220E030E048E453E4EA
:101B70000E94DD1218160CF0D9C20E94B20662E86B
:101B800071E08BEA94E00E94260881E00E94BD0685
:101B90006AE971E08BEA94E00E94260882E00E94E4
:101BA000BD066FEA71E08BEA94E00E94260881E0AE
:101BB0008093A8040E945F040091980410919904F6
:101BC00020919A0430919B04AB01BC01401B510B46
:101BD000620B730B8091A4049091A504B0E0A0E087
:101BE00084179507A607B70708F023C1C0E08091C6
:101BF000A204C81760F4E0919E04F0919F04EC0FDA
:101C0000F11D62E080810E94D502CF5FF0CF712C80
:101C10008091A304781608F061C0072D10E0E091D0
:101C2000A004F091A104E00FF11F61E080810E9407
:101C3000D502E091A004F091A104E00FF11F60E053
:101C400080810E94770281E090E0A0E0B0E0072C64
:101C500004C0880F991FAA1FBB1F0A94D2F76C01FA
:101C60007C01E094F094612C8091A2046816F8F451
:101C7000C62DD0E0E0919E04F0919F04EC0FFD1F73
:101C800080810E944B022496CC0FDD1FC45CDB4F89
:101C9000892B41F4888199818C299D299983888396
:101CA0006394E2CF888199818E219F21F7CFE091C3
:101CB000A004F091A104E00FF11F61E080810E9477
:101CC00077028091A0049091A104080F191F60E091
:101CD000F80180810E94D50273949ACF0CE314E03E
:101CE000E8018F8D98A1892B21F41C8E3E8E2D8EBC
:101CF00019A22696F4E0C837DF0799F7F12C8091F6
:101D0000A204F81608F053C0E12CCF2CD12CCC0C37
:101D1000DD1CC6018C5B9B4F6C012091A304E21675
:101D200008F043C0F601608171810E2C02C07695E7
:101D300067950A94E2F7F29E900111242E0D311D51
:101D4000ECE3F4E080E0458D568D2417350709F467
:101D50000AC28F5F36968A30B1F760FF24C0ECE389
:101D6000F4E090E080E0448D411118C0E0919C04C3
:101D7000F0919D04E20FF31F408156E0589FF0015F
:101D8000599FF00D1124E45CFB4F448F368F258F53
:101D900010A2178E61E00E946B0405C00196369672
:101DA0008A30910501F7E394B8CFF394A8CFF12CD2
:101DB000F80181A18111F82E0A5F1F4FC017D107CA
:101DC000B9F70E945F04609398047093990480931C
:101DD0009A0490939B04FF2061F180915D04882315
:101DE00041F180915B0490915C04019711F5809121
:101DF0005804813309F081C10E94B2066BEB71E097
:101E00008BEA94E00E94260861E089E00E94770254
:101E10000E94110361E08AE00E94770284EB90E067
:101E20000E948D0068EE73E080E090E00E942D0437
:101E300002C01092A80468EB7BE080E090E00E9472
:101E40002D0481E10E94F303EC0160E072E08BE677
:101E500093E00E94260828EC30E0DE010E94601327
:101E6000A50194010E94B510CA01B9010E942D126A
:101E700042E00E944A0767E172E08BE693E00E942D
:101E8000F50668EE73E080E090E00E942D0464E6C1
:101E900070E080E090E00E942D0460E08FE00E94FE
:101EA000770283E090E00197F1F761E08FE00E9414
:101EB000770283E290E00197F1F760E08FE00E9403
:101EC0007702E0EAF0E06491EEEBF0E08491E82F35
:101ED000F0E0EE0FFF1FEA57FF4F8591949100E469
:101EE00012E42FE030E0462F0E94350B611571059A
:101EF0008105910529F06F5F7F4F8F4F9F4F9F7036
:101F00000E942B1229EE37EB4FEA5EE30E94E212A9
:101F100020E030E040E05FE30E94E2126B017C01D0
:101F200081E10E94F30381E10E94F3032CED30E094
:101F3000DC010E946013A50194010E94B510229F4C
:101F4000B001239F700D700D1124072E000C880B1B
:101F5000990B0E942D1226EF38E24CE551E40E94C5
:101F60008A112B013C014092560350925703609214
:101F700058037092590320E030E040E85FE3C70166
:101F8000B6010E9418119B01AC01C301B2010E946D
:101F9000DD1287FDE3C084EB90E00E948D0061E0DC
:101FA00089E00E9477020E94110361E08AE00E94AA
:101FB00077020E94B2066AE172E08BEA94E00E9426
:101FC000260881E00E94BD066DE272E08BEA94E093
:101FD0000E94260860E472E08BE693E00E942608E7
:101FE00042E0C701B6010E944A0764E572E08BE651
:101FF00093E00E94F50667E172E08BE693E00E94B1
:10200000F50668E572E08BE693E00E942608609191
:10201000560370915703809158039091590342E001
:102020000E944A0764E572E08BE693E00E94F506A1
:1020300067E172E08BE693E00E94F50664E670E0EB
:1020400080E090E00E942D048BE693E00E947301F3
:10205000892B19F18BE693E00E9451018434E9F455
:1020600081E08093550361E089E00E94770261E09E
:102070008AE00E9477020E94B2066CE672E08BEA68
:1020800094E00E9426080E945F04609351037093BD
:1020900052038093530390935403809155038823F4
:1020A000F9F00E945F0400915103109152032091B6
:1020B000530330915403601B710B820B930B6031FF
:1020C00077428105910560F00E94B2066CE872E0EB
:1020D0008BEA94E00E94260884EB90E00E948D0039
:1020E00080E090E0892B09F436CD0E947F0188239F
:1020F00009F431CD0E9400002ECD823309F09BCE31
:102100000E94B2066CEC71E08BEA94E00E94260813
:1021100060E089E00E9477028DE00E94A90260E001
:102120008AE00E94770290E080E07ACE0E94B206B8
:1021300063EF71E08BEA94E00E94260860E089E09A
:102140000E9477028DE00E94A90260E08AE00E946E
:10215000770290E080E00E948D006DCE90E080E0FC
:102160000E948D0037CF617016CE052E97FB1EF4AE
:1021700000940E94CC1057FD07D00E94E71007FC86
:1021800003D04EF40C94CC10509540953095219589
:102190003F4F4F4F5F4F0895909580957095619593
:1021A0007F4F8F4F9F4F08950E940911A59F900D5B
:1021B000B49F900DA49F800D911D11240895B7FF29
:1021C0000C94D4100E94D410821B930B0895A1E2AA
:1021D0001A2EAA1BBB1BFD010DC0AA1FBB1FEE1FA1
:1021E000FF1FA217B307E407F50720F0A21BB30BEC
:1021F000E40BF50B661F771F881F991F1A9469F768
:1022000060957095809590959B01AC01BD01CF01C3
:102210000895A29FB001B39FC001A39F700D811DBF
:102220001124911DB29F700D811D1124911D0895DF
:102230005058BB27AA270E9430110C94A3120E9469
:10224000951238F00E949C1220F039F49F3F19F447
:1022500026F40C9492120EF4E095E7FB0C948C1289
:10226000E92F0E94B41258F3BA1762077307840764
:10227000950720F079F4A6F50C94D6120EF4E095AB
:102280000B2EBA2FA02D0B01B90190010C01CA0130
:10229000A0011124FF27591B99F0593F50F4503EDB
:1022A00068F11A16F040A22F232F342F4427585FCD
:1022B000F3CF469537952795A795F0405395C9F7E5
:1022C0007EF41F16BA0B620B730B840BBAF091509D
:1022D000A1F0FF0FBB1F661F771F881FC2F70EC03C
:1022E000BA0F621F731F841F48F48795779567950F
:1022F000B795F7959E3F08F0B0CF9395880F08F0FB
:102300009927EE0F9795879508950E94681208F413
:1023100081E008950E949E110C94A3120E949C12C9
:1023200058F00E94951240F029F45F3F29F00C9478
:102330008C1251110C94D7120C9492120E94B41268
:1023400068F39923B1F3552391F3951B550BBB27E4
:10235000AA2762177307840738F09F5F5F4F220F29
:10236000331F441FAA1FA9F335D00E2E3AF0E0E820
:1023700032D091505040E695001CCAF72BD0FE2F6A
:1023800029D0660F771F881FBB1F261737074807FE
:10239000AB07B0E809F0BB0B802DBF01FF279358B6
:1023A0005F4F3AF09E3F510578F00C948C120C94DC
:1023B000D7125F3FE4F3983ED4F3869577956795FF
:1023C000B795F7959F5FC9F7880F911D96958795EB
:1023D00097F90895E1E0660F771F881FBB1F62170A
:1023E00073078407BA0720F0621B730B840BBA0BC8
:1023F000EE1F88F7E09508950E94BC1288F09F5761
:1024000098F0B92F9927B751B0F0E1F0660F771F18
:10241000881F991F1AF0BA95C9F714C0B13091F00E
:102420000E94D612B1E008950C94D612672F782F2F
:102430008827B85F39F0B93FCCF3869577956795D3
:10244000B395D9F73EF490958095709561957F4F3F
:102450008F4F9F4F0895E89409C097FB3EF49095E5
:102460008095709561957F4F8F4F9F4F9923A9F06D
:10247000F92F96E9BB279395F695879577956795FC
:10248000B795F111F8CFFAF4BB0F11F460FF1BC040
:102490006F5F7F4F8F4F9F4F16C0882311F096E9D3
:1024A00011C0772321F09EE8872F762F05C0662381
:1024B00071F096E8862F70E060E02AF09A95660F3A
:1024C000771F881FDAF7880F9695879597F90895F3
:1024D000990F0008550FAA0BE0E8FEEF1616170635
:1024E000E807F907C0F012161306E407F50798F09D
:1024F000621B730B840B950B39F40A2661F0232BB6
:10250000242B252B21F408950A2609F4A140A69531
:102510008FEF811D811D089597F99F6780E870E016
:1025200060E008959FEF80EC089500240A94161649
:10253000170618060906089500240A9412161306B1
:10254000140605060895092E0394000C11F488233F
:1025500052F0BB0F40F4BF2B11F460FF04C06F5F5B
:102560007F4F8F4F9F4F089557FD9058440F551F31
:1025700059F05F3F71F04795880F97FB991F61F005
:102580009F3F79F087950895121613061406551F7C
:10259000F2CF4695F1DF08C0161617061806991FE8
:1025A000F1CF86957105610508940895E894BB27DD
:1025B00066277727CB0197F908950E94681208F4DF
:1025C0008FEF08950E94F5120C94A3120E949512A9
:1025D00038F00E949C1220F0952311F00C948C127C
:1025E0000C94921211240C94D7120E94B41270F31E
:1025F000959FC1F3950F50E0551F629FF001729FA8
:10260000BB27F00DB11D639FAA27F00DB11DAA1FB6
:10261000649F6627B00DA11D661F829F2227B00D03
:10262000A11D621F739FB00DA11D621F839FA00D8E
:10263000611D221F749F3327A00D611D231F849FDE
:10264000600D211D822F762F6A2F11249F57504035
:102650009AF0F1F088234AF0EE0FFF1FBB1F661FB0
:10266000771F881F91505040A9F79E3F510580F079
:102670000C948C120C94D7125F3FE4F3983ED4F381
:10268000869577956795B795F795E7959F5FC1F71D
:10269000FE2B880F911D9695879597F908950E94B6
:1026A0006812880B990B0895991B79E004C0991F53
:1026B000961708F0961B881F7A95C9F7809508959C
:1026C0000E940911B7FF0895821B930B0895EE0F26
:1026D000FF1F0590F491E02D0994F894FFCFFF08B7
:1026E0000706050403023132333435363738392AC8
:1026F0003023000040001400540000000000B50129
:102700001501420102027301510165010000000040
:1027100069053C057F062E05350532052F050000AD
:102720000000EF03A502740200000000EF0615018F
:102730007F06C7046E616E00696E66006F76660084
:10274000416C636F686F6C204465746563746F726D
:1027500000506C6561736520776169742E2E2E00C0
:10276000414C434F484F4C204C494D49542045580B
:1027700043454544454421004C61737420647269AB
:102780006E6B20696E2033206872733F00312D59C3
:1027900065732020322D4E6F00556E736166652083
:1027A000746F2064726976652100447269766520D1
:1027B000736166656C7920616E64206F6273657207
:1027C00076652074726166666963206C6177732137
:1027D00000447269766520736166656C79005665A0
:1027E0006869636C6520537065656420286B6D2F84
:1027F00068293A20000D0A00437269746963616CAC
:1028000020736974756174696F6E005665686963D9
:102810006C652073746F7070696E672121004D655F
:102820006173757265642044697374616E63653A9F
:102830002000206B6D0053746F7070696E672044C8
:10284000697374616E63653A2000466174696775E7
:10285000652064657465637465642C2054616B65E0
:102860002061207265737421210043726974696369
:10287000616C2073697374756174696F6E2C205676
:10288000656869636C652073746F7070696E67004A
:107E0000112484B714BE81FFF0D085E080938100F7
:107E100082E08093C00088E18093C10086E0809377
:107E2000C20080E18093C4008EE0C9D0259A86E02C
:107E300020E33CEF91E0309385002093840096BBD3
:107E4000B09BFECF1D9AA8958150A9F7CC24DD24C4
:107E500088248394B5E0AB2EA1E19A2EF3E0BF2EE7
:107E6000A2D0813461F49FD0082FAFD0023811F036
:107E7000013811F484E001C083E08DD089C08234E0
:107E800011F484E103C0853419F485E0A6D080C0E4
:107E9000853579F488D0E82EFF2485D0082F10E0AE
:107EA000102F00270E291F29000F111F8ED06801E7
:107EB0006FC0863521F484E090D080E0DECF843638
:107EC00009F040C070D06FD0082F6DD080E0C81688
:107ED00080E7D80618F4F601B7BEE895C0E0D1E017
:107EE00062D089930C17E1F7F0E0CF16F0E7DF06D8
:107EF00018F0F601B7BEE89568D007B600FCFDCFD4
:107F0000A601A0E0B1E02C9130E011968C91119780
:107F100090E0982F8827822B932B1296FA010C0160
:107F200087BEE89511244E5F5F4FF1E0A038BF0790
:107F300051F7F601A7BEE89507B600FCFDCF97BE46
:107F4000E89526C08437B1F42ED02DD0F82E2BD052
:107F50003CD0F601EF2C8F010F5F1F4F84911BD097
:107F6000EA94F801C1F70894C11CD11CFA94CF0C13
:107F7000D11C0EC0853739F428D08EE10CD085E9AC
:107F80000AD08FE07ACF813511F488E018D01DD067
:107F900080E101D065CF982F8091C00085FFFCCF94
:107FA0009093C60008958091C00087FFFCCF809118
:107FB000C00084FD01C0A8958091C6000895E0E648
:107FC000F0E098E1908380830895EDDF803219F02E
:107FD00088E0F5DFFFCF84E1DECF1F93182FE3DFCA
:107FE0001150E9F7F2DF1F91089580E0E8DFEE27F6
:047FF000FF270994CA
:027FFE00040479
:00000001FF
